{
  "contractName": "NeonSender",
  "abi": [
    {
      "inputs": [],
      "stateMutability": "nonpayable",
      "type": "constructor"
    },
    {
      "anonymous": false,
      "inputs": [
        {
          "indexed": true,
          "internalType": "address",
          "name": "_from",
          "type": "address"
        },
        {
          "indexed": true,
          "internalType": "uint256",
          "name": "_value",
          "type": "uint256"
        },
        {
          "indexed": false,
          "internalType": "address",
          "name": "_to",
          "type": "address"
        },
        {
          "indexed": false,
          "internalType": "uint256",
          "name": "_amount",
          "type": "uint256"
        },
        {
          "indexed": false,
          "internalType": "contract ERC20",
          "name": "_token",
          "type": "address"
        }
      ],
      "name": "MultiERC20Transfer",
      "type": "event"
    },
    {
      "anonymous": false,
      "inputs": [
        {
          "indexed": true,
          "internalType": "address",
          "name": "_from",
          "type": "address"
        },
        {
          "indexed": true,
          "internalType": "uint256",
          "name": "_value",
          "type": "uint256"
        },
        {
          "indexed": false,
          "internalType": "address",
          "name": "_to",
          "type": "address"
        },
        {
          "indexed": false,
          "internalType": "uint256",
          "name": "_amount",
          "type": "uint256"
        }
      ],
      "name": "MultiTransfer",
      "type": "event"
    },
    {
      "stateMutability": "payable",
      "type": "receive",
      "payable": true
    },
    {
      "inputs": [
        {
          "internalType": "address payable[]",
          "name": "_addresses",
          "type": "address[]"
        },
        {
          "internalType": "uint256[]",
          "name": "_amounts",
          "type": "uint256[]"
        }
      ],
      "name": "InnerCoinTransfer",
      "outputs": [
        {
          "internalType": "bool",
          "name": "",
          "type": "bool"
        }
      ],
      "stateMutability": "payable",
      "type": "function",
      "payable": true
    },
    {
      "inputs": [
        {
          "internalType": "contract ERC20",
          "name": "_token",
          "type": "address"
        },
        {
          "internalType": "address[]",
          "name": "_addresses",
          "type": "address[]"
        },
        {
          "internalType": "uint256[]",
          "name": "_amounts",
          "type": "uint256[]"
        }
      ],
      "name": "OtherTokensTransfer",
      "outputs": [],
      "stateMutability": "payable",
      "type": "function",
      "payable": true
    }
  ],
  "bytecode": "0x608060405234801561001057600080fd5b50610755806100206000396000f3fe60806040526004361061002d5760003560e01c8063956e2f201461003c578063d4d783c61461005157600080fd5b3661003757600080fd5b600080fd5b61004f61004a36600461057d565b610078565b005b61006461005f36600461049a565b6101a7565b604051901515815260200160405180910390f35b60005b82518110156101a1576100dd848483815181106100a857634e487b7160e01b600052603260045260246000fd5b60200260200101518484815181106100d057634e487b7160e01b600052603260045260246000fd5b602002602001015161030d565b34336001600160a01b03167ffc01e439ca3c7015e18b8adea39e270034ba32f41fc788a4ff659842f0f37a9385848151811061012957634e487b7160e01b600052603260045260246000fd5b602002602001015185858151811061015157634e487b7160e01b600052603260045260246000fd5b602002602001015188604051610187939291906001600160a01b0393841681526020810192909252909116604082015260600190565b60405180910390a380610199816106c0565b91505061007b565b50505050565b600034815b84518110156102f85761020d8582815181106101d857634e487b7160e01b600052603260045260246000fd5b602002602001015185838151811061020057634e487b7160e01b600052603260045260246000fd5b60200260200101516103cf565b61023e8285838151811061023157634e487b7160e01b600052603260045260246000fd5b6020026020010151610418565b915034336001600160a01b03167f319e0008dcdeba1f31169497fb0f35d31b2b2f481c714d1f50640e86ac6c3bb087848151811061028c57634e487b7160e01b600052603260045260246000fd5b60200260200101518785815181106102b457634e487b7160e01b600052603260045260246000fd5b60200260200101516040516102de9291906001600160a01b03929092168252602082015260400190565b60405180910390a3806102f0816106c0565b9150506101ac565b5061030333826103cf565b5060019392505050565b6001600160a01b03821661032057600080fd5b6040517f23b872dd0000000000000000000000000000000000000000000000000000000081523360048201526001600160a01b038381166024830152604482018390528416906323b872dd90606401602060405180830381600087803b15801561038957600080fd5b505af115801561039d573d6000803e3d6000fd5b505050506040513d601f19601f820116820180604052508101906103c1919061055d565b6103ca57600080fd5b505050565b6001600160a01b0382166103e257600080fd5b6040516001600160a01b0383169082156108fc029083906000818181858888f193505050501580156103ca573d6000803e3d6000fd5b600061042482846106a9565b9392505050565b600082601f83011261043b578081fd5b8135602061045061044b83610685565b610654565b80838252828201915082860187848660051b890101111561046f578586fd5b855b8581101561048d57813584529284019290840190600101610471565b5090979650505050505050565b600080604083850312156104ac578182fd5b823567ffffffffffffffff808211156104c3578384fd5b818501915085601f8301126104d6578384fd5b813560206104e661044b83610685565b8083825282820191508286018a848660051b8901011115610505578889fd5b8896505b8487101561053057803561051c81610707565b835260019690960195918301918301610509565b5096505086013592505080821115610546578283fd5b506105538582860161042b565b9150509250929050565b60006020828403121561056e578081fd5b81518015158114610424578182fd5b600080600060608486031215610591578081fd5b833561059c81610707565b925060208481013567ffffffffffffffff808211156105b9578384fd5b818701915087601f8301126105cc578384fd5b81356105da61044b82610685565b8082825285820191508585018b878560051b88010111156105f9578788fd5b8795505b8386101561062457803561061081610707565b8352600195909501949186019186016105fd565b5096505050604087013592508083111561063c578384fd5b505061064a8682870161042b565b9150509250925092565b604051601f8201601f1916810167ffffffffffffffff8111828210171561067d5761067d6106f1565b604052919050565b600067ffffffffffffffff82111561069f5761069f6106f1565b5060051b60200190565b6000828210156106bb576106bb6106db565b500390565b60006000198214156106d4576106d46106db565b5060010190565b634e487b7160e01b600052601160045260246000fd5b634e487b7160e01b600052604160045260246000fd5b6001600160a01b038116811461071c57600080fd5b5056fea26469706673582212202cc533f7f1d58307d7ba7e7c8577d7b10323f618a7197040fdfdf561fb7e14f464736f6c63430008040033",
  "immutableReferences": {},
  "source": "// SPDX-License-Identifier: MIT\n\npragma solidity ^0.8.0;\n\n\ninterface IERC20 {\n    event Transfer(address indexed from, address indexed to, uint256 value);\n    event Approval(address indexed owner, address indexed spender, uint256 value);\n    function totalSupply() external view returns (uint256);\n    function balanceOf(address account) external view returns (uint256);\n    function transfer(address to, uint256 amount) external returns (bool);\n    function allowance(address owner, address spender) external view returns (uint256);\n    function approve(address spender, uint256 amount) external returns (bool);\n    function transferFrom(\n        address from,\n        address to,\n        uint256 amount\n    ) external returns (bool);\n}\n\n\ninterface IERC20Metadata is IERC20 {\n    function name() external view returns (string memory);\n    function symbol() external view returns (string memory);\n    function decimals() external view returns (uint8);\n}\n\nabstract contract Context {\n    function _msgSender() internal view virtual returns (address) {\n        return msg.sender;\n    }\n\n    function _msgData() internal view virtual returns (bytes calldata) {\n        return msg.data;\n    }\n}\n\n\ncontract ERC20 is Context, IERC20, IERC20Metadata {\n    mapping(address => uint256) private _balances;\n\n    mapping(address => mapping(address => uint256)) private _allowances;\n\n    uint256 private _totalSupply;\n\n    string private _name;\n    string private _symbol;\n\n    constructor(string memory name_, string memory symbol_) {\n        _name = name_;\n        _symbol = symbol_;\n    }\n\n    function name() public view virtual override returns (string memory) {\n        return _name;\n    }\n\n    function symbol() public view virtual override returns (string memory) {\n        return _symbol;\n    }\n\n    function decimals() public view virtual override returns (uint8) {\n        return 18;\n    }\n\n\n    function totalSupply() public view virtual override returns (uint256) {\n        return _totalSupply;\n    }\n\n    function balanceOf(address account) public view virtual override returns (uint256) {\n        return _balances[account];\n    }\n\n    function transfer(address to, uint256 amount) public virtual override returns (bool) {\n        address owner = _msgSender();\n        _transfer(owner, to, amount);\n        return true;\n    }\n\n    function allowance(address owner, address spender) public view virtual override returns (uint256) {\n        return _allowances[owner][spender];\n    }\n\n    function approve(address spender, uint256 amount) public virtual override returns (bool) {\n        address owner = _msgSender();\n        _approve(owner, spender, amount);\n        return true;\n    }\n\n    function transferFrom(\n        address from,\n        address to,\n        uint256 amount\n    ) public virtual override returns (bool) {\n        address spender = _msgSender();\n        _spendAllowance(from, spender, amount);\n        _transfer(from, to, amount);\n        return true;\n    }\n\n    function increaseAllowance(address spender, uint256 addedValue) public virtual returns (bool) {\n        address owner = _msgSender();\n        _approve(owner, spender, allowance(owner, spender) + addedValue);\n        return true;\n    }\n\n\n    function decreaseAllowance(address spender, uint256 subtractedValue) public virtual returns (bool) {\n        address owner = _msgSender();\n        uint256 currentAllowance = allowance(owner, spender);\n        require(currentAllowance >= subtractedValue, \"ERC20: decreased allowance below zero\");\n    unchecked {\n        _approve(owner, spender, currentAllowance - subtractedValue);\n    }\n\n        return true;\n    }\n\n\n    function _transfer(\n        address from,\n        address to,\n        uint256 amount\n    ) internal virtual {\n        require(from != address(0), \"ERC20: transfer from the zero address\");\n        require(to != address(0), \"ERC20: transfer to the zero address\");\n\n        _beforeTokenTransfer(from, to, amount);\n\n        uint256 fromBalance = _balances[from];\n        require(fromBalance >= amount, \"ERC20: transfer amount exceeds balance\");\n    unchecked {\n        _balances[from] = fromBalance - amount;\n    }\n        _balances[to] += amount;\n\n        emit Transfer(from, to, amount);\n\n        _afterTokenTransfer(from, to, amount);\n    }\n\n\n    function _mint(address account, uint256 amount) internal virtual {\n        require(account != address(0), \"ERC20: mint to the zero address\");\n\n        _beforeTokenTransfer(address(0), account, amount);\n\n        _totalSupply += amount;\n        _balances[account] += amount;\n        emit Transfer(address(0), account, amount);\n\n        _afterTokenTransfer(address(0), account, amount);\n    }\n\n\n    function _burn(address account, uint256 amount) internal virtual {\n        require(account != address(0), \"ERC20: burn from the zero address\");\n\n        _beforeTokenTransfer(account, address(0), amount);\n\n        uint256 accountBalance = _balances[account];\n        require(accountBalance >= amount, \"ERC20: burn amount exceeds balance\");\n    unchecked {\n        _balances[account] = accountBalance - amount;\n    }\n        _totalSupply -= amount;\n\n        emit Transfer(account, address(0), amount);\n\n        _afterTokenTransfer(account, address(0), amount);\n    }\n\n\n    function _approve(\n        address owner,\n        address spender,\n        uint256 amount\n    ) internal virtual {\n        require(owner != address(0), \"ERC20: approve from the zero address\");\n        require(spender != address(0), \"ERC20: approve to the zero address\");\n\n        _allowances[owner][spender] = amount;\n        emit Approval(owner, spender, amount);\n    }\n\n\n    function _spendAllowance(\n        address owner,\n        address spender,\n        uint256 amount\n    ) internal virtual {\n        uint256 currentAllowance = allowance(owner, spender);\n        if (currentAllowance != type(uint256).max) {\n            require(currentAllowance >= amount, \"ERC20: insufficient allowance\");\n        unchecked {\n            _approve(owner, spender, currentAllowance - amount);\n        }\n        }\n    }\n\n    function _beforeTokenTransfer(\n        address from,\n        address to,\n        uint256 amount\n    ) internal virtual {}\n\n\n    function _afterTokenTransfer(\n        address from,\n        address to,\n        uint256 amount\n    ) internal virtual {}\n}\n\n\nlibrary SafeMath {\n    function tryAdd(uint256 a, uint256 b) internal pure returns (bool, uint256) {\n    unchecked {\n        uint256 c = a + b;\n        if (c < a) return (false, 0);\n        return (true, c);\n    }\n    }\n\n    function trySub(uint256 a, uint256 b) internal pure returns (bool, uint256) {\n    unchecked {\n        if (b > a) return (false, 0);\n        return (true, a - b);\n    }\n    }\n\n\n    function tryMul(uint256 a, uint256 b) internal pure returns (bool, uint256) {\n    unchecked {\n        if (a == 0) return (true, 0);\n        uint256 c = a * b;\n        if (c / a != b) return (false, 0);\n        return (true, c);\n    }\n    }\n\n\n    function tryDiv(uint256 a, uint256 b) internal pure returns (bool, uint256) {\n    unchecked {\n        if (b == 0) return (false, 0);\n        return (true, a / b);\n    }\n    }\n\n    function tryMod(uint256 a, uint256 b) internal pure returns (bool, uint256) {\n    unchecked {\n        if (b == 0) return (false, 0);\n        return (true, a % b);\n    }\n    }\n\n\n    function add(uint256 a, uint256 b) internal pure returns (uint256) {\n        return a + b;\n    }\n\n\n    function sub(uint256 a, uint256 b) internal pure returns (uint256) {\n        return a - b;\n    }\n\n\n    function mul(uint256 a, uint256 b) internal pure returns (uint256) {\n        return a * b;\n    }\n\n\n    function div(uint256 a, uint256 b) internal pure returns (uint256) {\n        return a / b;\n    }\n\n\n    function mod(uint256 a, uint256 b) internal pure returns (uint256) {\n        return a % b;\n    }\n\n\n    function sub(\n        uint256 a,\n        uint256 b,\n        string memory errorMessage\n    ) internal pure returns (uint256) {\n    unchecked {\n        require(b <= a, errorMessage);\n        return a - b;\n    }\n    }\n\n\n    function div(\n        uint256 a,\n        uint256 b,\n        string memory errorMessage\n    ) internal pure returns (uint256) {\n    unchecked {\n        require(b > 0, errorMessage);\n        return a / b;\n    }\n    }\n\n    function mod(\n        uint256 a,\n        uint256 b,\n        string memory errorMessage\n    ) internal pure returns (uint256) {\n    unchecked {\n        require(b > 0, errorMessage);\n        return a % b;\n    }\n    }\n}\n\n\ncontract Migrations {\n    address public owner;\n    uint public last_completed_migration;\n\n    modifier restricted() {\n        if (msg.sender == owner) _;\n    }\n\n    constructor() {\n        owner = msg.sender;\n    }\n\n    function setCompleted(uint completed) public restricted {\n        last_completed_migration = completed;\n    }\n\n    function upgrade(address new_address) public restricted {\n        Migrations upgraded = Migrations(new_address);\n        upgraded.setCompleted(last_completed_migration);\n    }\n}\n\n\ncontract NeonSender {\n\n    event MultiTransfer(\n        address indexed _from,\n        uint indexed _value,\n        address _to,\n        uint _amount\n    );\n\n    event MultiERC20Transfer(\n        address indexed _from,\n        uint indexed _value,\n        address _to,\n        uint _amount,\n        ERC20 _token\n    );\n\n    constructor()  {}\n\n    function InnerCoinTransfer(address payable[] memory _addresses, uint[] memory _amounts)\n    payable public returns(bool)\n    {\n        uint toReturn = msg.value;\n        for (uint i = 0; i < _addresses.length; i++) {\n            _safeCoinTransfer(_addresses[i], _amounts[i]);\n            toReturn = SafeMath.sub(toReturn, _amounts[i]);\n            emit MultiTransfer(msg.sender, msg.value, _addresses[i], _amounts[i]);\n        }\n        _safeCoinTransfer(payable(msg.sender), toReturn);\n        return true;\n    }\n\n    function OtherTokensTransfer(\n        ERC20 _token,\n        address[] memory _addresses,\n        uint[] memory _amounts\n    ) public payable {\n        for (uint i = 0; i < _addresses.length; i++) {\n            _safeTokensTransfer(_token, _addresses[i], _amounts[i]);\n            emit MultiERC20Transfer(\n                msg.sender,\n                msg.value,\n                _addresses[i],\n                _amounts[i],\n                _token\n            );\n        }\n    }\n\n    function _safeCoinTransfer(address payable _to, uint _amount) internal {\n        require(_to != address(0));\n        _to.transfer(_amount);\n    }\n\n    function _safeTokensTransfer(ERC20 _token, address _to, uint _amount) internal {\n        require(_to != address(0));\n        require(_token.transferFrom(msg.sender, _to, _amount));\n    }\n\n    receive() external payable {\n        revert();\n    }\n}\n",
  "sourcePath": "/Users/romanshabanov/Desktop/myContract/contracts/NeonSender.sol",
  "compiler": {
    "name": "solc",
    "version": "0.8.4+commit.c7e474f2.Emscripten.clang"
  },
  "schemaVersion": "3.4.10",
  "updatedAt": "2022-11-06T15:45:03.993Z",
  "networkType": "ethereum",
  "devdoc": {
    "kind": "dev",
    "methods": {},
    "version": 1
  },
  "userdoc": {
    "kind": "user",
    "methods": {},
    "version": 1
  }
}